:020000040800F2
:100000000050002085140008291400082F1400084F
:10001000351400083B1400084114000800000000DB
:10002000000000000000000000000000471400086D
:1000300053140008000000005F1400086B1400084F
:10004000CD140008CD140008CD140008CD1400080C
:10005000CD140008CD140008CD140008CD140008FC
:10006000CD140008CD140008CD140008CD140008EC
:10007000CD140008CD140008CD140008CD140008DC
:10008000CD140008CD140008CD140008CD140008CC
:10009000CD140008CD140008CD140008CD140008BC
:1000A000CD140008CD140008CD140008CD140008AC
:1000B000CD140008CD140008CD140008CD1400089C
:1000C000CD140008CD140008CD140008CD1400088C
:1000D000CD140008CD140008CD140008CD1400087C
:1000E000CD140008CD140008CD1400080000000055
:1000F0000000000000000000000000000000000000
:0C01000000000000000000005FF808F1A3
:1001100010B5054C237833B9044B13B10448AFF341
:1001200000800123237010BD7C000020000000002F
:10013000E02E000808B5034B1BB103490348AFF399
:10014000008008BD0000000080000020E02E0008B4
:1001500081F0004102E000BF83F0004330B54FEA78
:1001600041044FEA430594EA050F08BF90EA020FE5
:100170001FBF54EA000C55EA020C7FEA645C7FEA78
:10018000655C00F0E2804FEA5454D4EB5555B8BF9B
:100190006D420CDD2C4480EA020281EA030382EA0C
:1001A000000083EA010180EA020281EA0303362D9E
:1001B00088BF30BD11F0004F4FEA01314FF4801C71
:1001C0004CEA113102D0404261EB410113F0004F83
:1001D0004FEA03334CEA133302D0524263EB43033A
:1001E00094EA050F00F0A780A4F10104D5F1200ED8
:1001F0000DDB02FA0EFC22FA05F2801841F1000133
:1002000003FA0EF2801843FA05F359410EE0A5F106
:1002100020050EF1200E012A03FA0EFC28BF4CF037
:10022000020C43FA05F3C01851EBE37101F00045ED
:1002300007D54FF0000EDCF1000C7EEB00006EEBFA
:100240000101B1F5801F1BD3B1F5001F0CD3490884
:100250005FEA30004FEA3C0C04F101044FEA4452DB
:1002600012F5800F80F09A80BCF1004F08BF5FEA62
:10027000500C50F1000041EB045141EA050130BD42
:100280005FEA4C0C404141EB0101013C28BFB1F554
:10029000801FE9D291F0000F04BF01460020B1FA9F
:1002A00081F308BF2033A3F10B03B3F120020CDA72
:1002B0000C3208DD02F1140CC2F10C0201FA0CF050
:1002C00021FA02F10CE002F11402D8BFC2F1200CB5
:1002D00001FA02F120FA0CFCDCBF41EA0C0190406B
:1002E000E41AA2BF01EB0451294330BD6FEA0404B4
:1002F0001F3C1CDA0C340EDC04F11404C4F120029F
:1003000020FA04F001FA02F340EA030021FA04F3B0
:1003100045EA030130BDC4F10C04C4F1200220FA07
:1003200002F001FA04F340EA0300294630BD21FA45
:1003300004F0294630BD94F0000F83F4801306BF0B
:1003400081F480110134013D4EE77FEA645C18BFFF
:100350007FEA655C29D094EA050F08BF90EA020F96
:1003600005D054EA000C04BF1946104630BD91EA8E
:10037000030F1EBF0021002030BD5FEA545C05D191
:100380004000494128BF41F0004130BD14F58004D0
:100390003CBF01F5801130BD01F0004545F0FE4144
:1003A00041F470014FF0000030BD7FEA645C1ABF79
:1003B000194610467FEA655C1CBF0B46024650EAB0
:1003C000013406BF52EA033591EA030F41F40021DC
:1003D00030BD00BF90F0000F04BF0021704730B562
:1003E0004FF4806404F132044FF000054FF0000137
:1003F00050E700BF90F0000F04BF0021704730B5F8
:100400004FF4806404F1320410F0004548BF4042CC
:100410004FF000013EE700BF42004FEAE2014FEA21
:1004200031014FEA02701FBF12F07F4393F07F4FFC
:1004300081F06051704732F07F4208BF704793F0FF
:100440007F4F04BF41F40021704730B54FF4607412
:1004500001F0004521F000411CE700BF50EA010215
:1004600008BF704730B54FF000050AE050EA0102BE
:1004700008BF704730B511F0004502D5404261EB2E
:1004800041014FF4806404F132045FEA915C3FF46F
:10049000D8AE4FF003025FEADC0C18BF03325FEA0C
:1004A000DC0C18BF033202EBDC02C2F1200300FABD
:1004B00003FC20FA02F001FA03FE40EA0E0021FAE2
:1004C00002F11444BDE600BF70B54FF0FF0C4CF4D0
:1004D000E06C1CEA11541DBF1CEA135594EA0C0F82
:1004E00095EA0C0F00F0DEF82C4481EA030621EABD
:1004F0004C5123EA4C5350EA013518BF52EA0335F8
:1005000041F4801143F4801338D0A0FB02CE4FF0A9
:100510000005E1FB02E506F00042E0FB03E54FF0D9
:100520000006E1FB03569CF0000F18BF4EF0010ED1
:10053000A4F1FF04B6F5007F64F5407404D25FEACD
:100540004E0E6D4146EB060642EAC62141EA555180
:100550004FEAC52040EA5E504FEACE2EB4F1FD0CC2
:1005600088BFBCF5E06F1ED8BEF1004F08BF5FEA40
:10057000500E50F1000041EB045170BD06F00046F2
:1005800046EA010140EA020081EA0301B4EB5C049F
:10059000C2BFD4EB0C0541EA045170BD41F4801197
:1005A0004FF0000E013C00F3AB8014F1360FDEBFBC
:1005B000002001F0004170BDC4F10004203C35DA98
:1005C0000C341BDC04F11404C4F1200500FA05F31B
:1005D00020FA04F001FA05F240EA020001F00042BC
:1005E00021F0004110EBD37021FA04F642EB060132
:1005F0005EEA430E08BF20EAD37070BDC4F10C045C
:10060000C4F1200500FA04F320FA05F001FA04F21F
:1006100040EA020001F0004110EBD37041F100010B
:100620005EEA430E08BF20EAD37070BDC4F1200516
:1006300000FA05F24EEA020E20FA04F301FA05F27E
:1006400043EA020321FA04F001F0004121FA04F226
:1006500020EA020000EBD3705EEA430E08BF20EAF6
:10066000D37070BD94F0000F0FD101F00046400030
:1006700041EB010111F4801F08BF013CF7D041EAB2
:10068000060195F0000F18BF704703F000465200B6
:1006900043EB030313F4801F08BF013DF7D043EA87
:1006A0000603704794EA0C0F0CEA135518BF95EA3D
:1006B0000C0F0CD050EA410618BF52EA4306D1D1C4
:1006C00081EA030101F000414FF0000070BD50EAE3
:1006D000410606BF1046194652EA430619D094EA6D
:1006E0000C0F02D150EA013613D195EA0C0F05D157
:1006F00052EA03361CBF104619460AD181EA0301AB
:1007000001F0004141F0FE4141F470014FF0000062
:1007100070BD41F0FE4141F4780170BD70B54FF0FD
:10072000FF0C4CF4E06C1CEA11541DBF1CEA13557D
:1007300094EA0C0F95EA0C0F00F0A7F8A4EB05045F
:1007400081EA030E52EA03354FEA013100F0888056
:100750004FEA03334FF0805545EA131343EA12631F
:100760004FEA022245EA111545EA10654FEA0026D4
:100770000EF000419D4208BF964244F1FD0404F58D
:10078000407402D25B084FEA3202B61A65EB0305E9
:100790005B084FEA32024FF480104FF4002CB6EBA6
:1007A000020E75EB030E22BFB61A754640EA0C0026
:1007B0005B084FEA3202B6EB020E75EB030E22BF66
:1007C000B61A754640EA5C005B084FEA3202B6EBA7
:1007D000020E75EB030E22BFB61A754640EA9C0066
:1007E0005B084FEA3202B6EB020E75EB030E22BF36
:1007F000B61A754640EADC0055EA060E18D04FEAF4
:10080000051545EA16754FEA06164FEAC30343EA93
:1008100052734FEAC2025FEA1C1CC0D111F4801F60
:100820000BD141EA00014FF000004FF0004CB6E759
:1008300011F4801F04BF01430020B4F1FD0C88BFF8
:10084000BCF5E06F3FF6AFAEB5EB030C04BFB6EB03
:10085000020C5FEA500C50F1000041EB045170BDF6
:100860000EF0004E4EEA113114EB5C04C2BFD4EB23
:100870000C0541EA045170BD41F480114FF0000EA7
:10088000013C90E645EA060E8DE60CEA135594EA23
:100890000C0F08BF95EA0C0F3FF43BAF94EA0C0F26
:1008A0000AD150EA01347FF434AF95EA0C0F7FF49B
:1008B00025AF104619462CE795EA0C0F06D152EAEF
:1008C00003353FF4FDAE1046194622E750EA4106D3
:1008D00018BF52EA43067FF4C5AE50EA41047FF4E4
:1008E0000DAF52EA43057FF4EBAE12E74FF0FF3C49
:1008F00006E000BF4FF0010C02E000BF4FF0010C1A
:100900004DF804CD4FEA410C7FEA6C5C4FEA430C92
:1009100018BF7FEA6C5C1BD001B050EA410C0CBFE1
:1009200052EA430C91EA030F02BF90EA020F002043
:10093000704710F1000F91EA030F58BF994208BFAA
:1009400090422CBFD8176FEAE37040F00100704767
:100950004FEA410C7FEA6C5C02D150EA013C07D1BE
:100960004FEA430C7FEA6C5CD6D152EA033CD3D009
:100970005DF8040B704700BF8446104662468C4603
:100980001946634600E000BF01B5FFF7B7FF002836
:1009900048BF10F1000F01BD4DF808EDFFF7F4FF5F
:1009A0000CBF012000205DF808FB00BF4DF808EDEA
:1009B000FFF7EAFF34BF012000205DF808FB00BF0D
:1009C0004DF808EDFFF7E0FF94BF012000205DF82F
:1009D00008FB00BF4DF808EDFFF7CEFF94BF0120E4
:1009E00000205DF808FB00BF4DF808EDFFF7C4FFDD
:1009F00034BF012000205DF808FB00BF4FEA410C26
:100A00007FEA6C5C02D150EA013C0AD14FEA430C08
:100A10007FEA6C5C02D152EA033C02D14FF0000045
:100A200070474FF0010070474A0011D212F50012D2
:100A300011D20DD56FF47873B3EB62520ED44FEA36
:100A4000C12343F0004343EA505323FA02F07047B6
:100A50004FF00000704750EA013002D14FF0FF30F4
:100A600070474FF0000070474FEA4102B2F1E04397
:100A700024BFB3F5001CDCF1FE5C0DD901F0004C85
:100A80004FEAC0024CEA5070B2F1004F40EB8300D5
:100A900008BF20F00100704711F0804F21D113F101
:100AA0003872BCBF01F00040704741F480114FEA3A
:100AB0005252C2F11802C2F1200C10FA0CF320FAC3
:100AC00002F018BF40F001004FEAC1234FEAD323E0
:100AD00003FA0CFC40EA0C0023FA02F34FEA43034A
:100AE000CCE77FEA625307D150EA01331EBF4FF0D3
:100AF000FE4040F44000704701F0004040F0FE40EE
:100B000040F40000704700BF4FF0FF0C1CEAD052C9
:100B10001EBF1CEAD15392EA0C0F93EA0C0F6FD060
:100B20001A4480EA010C400218BF5FEA41211ED03E
:100B30004FF0006343EA501043EA5111A0FB01312A
:100B40000CF00040B1F5000F3EBF490041EAD371FF
:100B50005B0040EA010062F17F02FD2A1DD8B3F17B
:100B6000004F40EBC25008BF20F00100704790F0EA
:100B7000000F0CF0004C08BF49024CEA502040EA3C
:100B800051207F3AC2BFD2F1FF0340EAC250704702
:100B900040F400004FF00003013A5DDC12F1190F40
:100BA000DCBF00F000407047C2F10002410021FAB2
:100BB00002F1C2F1200200FA02FC5FEA310040F1CA
:100BC000000053EA4C0308BF20EADC70704792F043
:100BD000000F00F0004C02BF400010F4000F013A7B
:100BE000F9D040EA0C0093F0000F01F0004C02BF76
:100BF000490011F4000F013BF9D041EA0C018FE7E5
:100C00000CEAD15392EA0C0F18BF93EA0C0F0AD0EA
:100C100030F0004C18BF31F0004CD8D180EA010010
:100C200000F00040704790F0000F17BF90F0004FA9
:100C3000084691F0000F91F0004F14D092EA0C0F8B
:100C400001D142020FD193EA0C0F03D14B0218BF1E
:100C5000084608D180EA010000F0004040F0FE4064
:100C600040F40000704740F0FE4040F44000704700
:100C70004FF0FF0C1CEAD0521EBF1CEAD15392EA7F
:100C80000C0F93EA0C0F69D0A2EB030280EA010C6F
:100C900049024FEA402037D04FF0805343EA111108
:100CA00043EA10130CF000408B4238BF5B0042F166
:100CB0007D024FF4000C8B4224BF5B1A40EA0C000B
:100CC000B3EB510F24BFA3EB510340EA5C00B3EB3D
:100CD000910F24BFA3EB910340EA9C00B3EBD10F2B
:100CE00024BFA3EBD10340EADC001B0118BF5FEA7D
:100CF0001C1CE0D1FD2A3FF650AF8B4240EBC250A6
:100D000008BF20F0010070470CF0004C4CEA502066
:100D10007F32C2BFD2F1FF0340EAC250704740F4B5
:100D200000004FF00003013A37E792F0000F00F0A7
:100D3000004C02BF400010F4000F013AF9D040EA25
:100D40000C0093F0000F01F0004C02BF490011F4B9
:100D5000000F013BF9D041EA0C0195E70CEAD153B1
:100D600092EA0C0F08D142027FF47DAF93EA0C0F98
:100D70007FF470AF084676E793EA0C0F04D14B027C
:100D80003FF44CAF08466EE730F0004C18BF31F02E
:100D9000004CCAD130F000427FF45CAF31F0004328
:100DA0007FF43CAF5FE700BF80B582B000AF00F0DA
:100DB0008FFB00F0CFF800F061F900F021F95E48F8
:100DC00000F0E4FC5C4800F0BBFD03469AB25B4BCC
:100DD0001A805A4B1B881846FFF70CFB02460B463D
:100DE0004DA1D1E90001FFF799FC02460B461046E0
:100DF00019464FF00002524BFFF7AEF902460B4680
:100E000010461946FFF730FE03467B607868FFF70F
:100E100003FB02460B461046194601F077FE0246D8
:100E20000B4610461946FFF71FFE03461846FFF70C
:100E3000F3FA3BA3D3E90023FFF770FC02460B460D
:100E400010461946FFF710FE03463B603D493868DF
:100E5000FFF70EFF03461846FFF7DEFA32A3D3E989
:100E60000023FFF77BF902460B464FF000003449A0
:100E7000FFF754FC02460B46104619462CA3D3E953
:100E80000023FFF769F902460B4610461946FFF7A3
:100E9000CBFD03462C4A13602B4B1B68252B0AD92C
:100EA00001220421294801F053F901220121284897
:100EB00001F04EF920E0244B1B68152B0ED9224B74
:100EC0001B68252B0AD801220421204801F040F993
:100ED000002201211E4801F03BF90DE01A4B1B686E
:100EE000152B09D800220421184801F031F90022FD
:100EF0000121174801F02CF9134B1B689BB21846CF
:100F000000F07AF90C4800F0EFFC0F4B1B689BB225
:100F1000184600F0FFF952E70000000000E0A5408D
:100F20007C50DF96FEFFEF3F83DBB5DCE1796B3F62
:100F3000666666666612714098000020C800002050
:100F40000000F03F00E07645CC00002000080140A2
:100F5000000C014080B594B000AF07F128032822AF
:100F60000021184601F0CAFD07F1140300221A609F
:100F70005A609A60DA601A613B1D00221A605A605A
:100F80009A60DA600223BB620123BB631023FB6318
:100F900002237B640023BB644FF40023FB6407F14E
:100FA0002803184601F0ECF80346002B01D000F0AE
:100FB000C8F90F237B610223BB610023FB614FF45F
:100FC00080633B6200237B6207F114030021184613
:100FD00001F058FB0346002B01D000F0B2F90223C8
:100FE0007B600023FB603B1D184601F0A7FC034615
:100FF000002B01D000F0A5F900BF5037BD4680BDE1
:1010000080B584B000AF3B1D00221A605A609A6020
:10101000184B194A1A60174B00229A60154B002290
:101020001A73144B00221A75124B4FF46022DA61C6
:10103000104B00225A600F4B01221A610D4800F03C
:10104000CDFA0346002B01D000F07BF900237B6032
:101050000123BB600023FB603B1D1946054800F0DF
:101060007BFC0346002B01D000F06BF900BF10376A
:10107000BD4680BD980000200024014080B586B0A8
:1010800000AF07F1080300221A605A609A60DA6024
:10109000224B9B69214A43F0040393611F4B9B69D8
:1010A00003F004037B607B681C4B9B691B4A43F085
:1010B00008039361194B9B6903F008033B603B688D
:1010C00000224FF48271164801F042F8002241F6E6
:1010D000FB71144801F03CF84FF48273BB600123AC
:1010E000FB6000233B6102237B6107F10803194683
:1010F0000B4800F0A9FE41F6FB73BB600123FB60C7
:1011000000233B6102237B6107F108031946054870
:1011100000F09AFE00BF1837BD4680BD00100240A7
:1011200000080140000C014080B582B000AF0346CA
:10113000FB71FB792E4AD35C03F00103DBB21A4644
:1011400002212C4801F004F8FB79294AD35C5B08A2
:10115000DBB203F00103DBB21A464FF4805125489D
:1011600000F0F6FFFB79224AD35C9B08DBB203F068
:101170000103DBB21A4608211E4800F0E9FFFB79A3
:101180001B4AD35CDB08DBB203F00103DBB21A4677
:101190001021184800F0DCFFFB79154AD35C1B09CD
:1011A000DBB203F00103DBB21A462021114800F044
:1011B000CFFFFB790E4AD35C5B09DBB203F001037E
:1011C000DBB21A4640210B4800F0C2FFFB79084A07
:1011D000D35C9B09DBB203F00103DBB21A4680212A
:1011E000044800F0B5FF00BF0837BD4680BD00BF12
:1011F00000000020000C014080B582B000AF034623
:10120000FB80FB883F4AA2FB03239B099BB2DBB216
:101210001846FFF789FF01224FF480713A4800F029
:1012200097FF022000F0B6F900224FF48071364893
:1012300000F08EFFFB88334AA2FB031292094FF4A1
:101240007A7101FB02F29B1A9BB2304AA2FB032384
:101250005B099BB2DBB21846FFF766FF01224FF431
:101260000071294800F074FF022000F093F9002279
:101270004FF40071244800F06BFFFB88234AA2FB67
:1012800003125209642101FB02F29B1A9BB2204A0D
:10129000A2FB0323DB089BB2DBB21846FFF744FF37
:1012A00001224FF48061184800F052FF022000F044
:1012B00071F900224FF48061134800F049FFFA8869
:1012C000134BA3FB0213D9080B469B000B445B0096
:1012D000D31A9BB2DBB21846FFF726FF01224FF468
:1012E0000061094800F034FF022000F053F90022A9
:1012F0004FF40061044800F02BFF00BF0837BD46E3
:1013000080BD00BFD34D6210000C01401F85EB5122
:10131000CDCCCCCC80B584B000AF0346FB8000239D
:10132000FB6006E0FB881846FFF766FFFB680133A9
:10133000FB60FB68312BF5DD00BF00BF1037BD46F9
:1013400080BD80B400AF72B600BFFEE780B485B048
:1013500000AF154B9B69144A43F001039361124B94
:101360009B6903F00103BB60BB680F4BDB690E4A4E
:1013700043F08053D3610C4BDB6903F080537B60F7
:101380007B680A4B5B68FB60FB6823F0E063FB60F3
:10139000FB6843F00073FB60044AFB68536000BFC6
:1013A0001437BD4680BC7047001002400000014069
:1013B00080B588B000AF786007F1100300221A6092
:1013C0005A609A60DA607B681B68144A934221D1A4
:1013D000134B9B69124A43F400739361104B9B6952
:1013E00003F40073FB60FB680D4B9B690C4A43F0F0
:1013F000040393610A4B9B6903F00403BB60BB6861
:1014000001233B6103237B6107F110031946054863
:1014100000F01AFD00BF2037BD4680BD002401400A
:10142000001002400008014080B400AFFEE780B425
:1014300000AFFEE780B400AFFEE780B400AFFEE788
:1014400080B400AFFEE780B400AF00BFBD4680BCF3
:10145000704780B400AF00BFBD4680BC704780B409
:1014600000AF00BFBD4680BC704780B500AF00F044
:1014700075F800BF80BD80B400AF00BFBD4680BC22
:1014800070470000FFF7F7FF0B480C490C4A002398
:1014900002E0D458C4500433C4188C42F9D3094A2A
:1014A000094C002301E013600432A242FBD301F097
:1014B00001FBFFF779FC7047000000207C00002052
:1014C000242F00087C000020D4000020FEE700004C
:1014D00080B500AF084B1B68074A43F01003136048
:1014E000032000F07DFC0F2000F008F8FFF72EFF2E
:1014F0000023184680BD00BF0020024080B582B0A6
:1015000000AF7860124B1A68124B1B7819464FF4E3
:101510007A73B3FBF1F3B2FBF3F3184600F087FCE8
:101520000346002B01D001230EE07B680F2B0AD865
:10153000002279684FF0FF3000F05DFC064A7B68BE
:101540001360002300E0012318460837BD4680BD24
:101550000C000020140000201000002080B400AF18
:10156000054B1B781A46054B1B681344034A13604E
:1015700000BFBD4680BC704714000020D000002092
:1015800080B400AF024B1B681846BD4680BC704754
:10159000D000002080B584B000AF7860FFF7F0FF86
:1015A000B8607B68FB60FB68B3F1FF3F05D00A4B76
:1015B0001B781A46FB681344FB6000BFFFF7E0FF8F
:1015C0000246BB68D31AFA689A42F7D800BF00BF38
:1015D0001037BD4680BD00BF1400002080B586B026
:1015E00000AF78600023FB7500233B610023BB60E4
:1015F0000023FB607B68002B01D10123BEE07B68E8
:101600009B68002B7B689B6A002B09D17B680022BA
:10161000DA627B68002283F824207868FFF7C8FE2E
:10162000786800F0EBFA0346FB757B689B6A03F071
:101630001003002B40F09980FB7D002B40F095803B
:101640007B689B6A23F4885323F0020343F0020271
:101650007B689A627B685A687B68DB691A437B689F
:101660001B7B5B001343BA681343BB607B689B68BA
:10167000B3F5807F03D07B689B68012B02D14FF4C8
:10168000807300E000233A6913433B617B681B7D54
:10169000012B19D17B681B7B002B09D17B689B69CF
:1016A000013B5A033B69134343F400633B610BE086
:1016B0007B689B6A43F020027B689A627B68DB6AE6
:1016C00043F001027B68DA627B681B685B6823F485
:1016D00069417B681B683A690A435A607B681B68EA
:1016E0009A68284B13407A681268B9680B43936074
:1016F0007B689B68B3F5807F03D07B689B68012B78
:1017000004D17B681B69013B1B05FB607B681B6880
:10171000DB6A23F470017B681B68FA680A43DA62AB
:101720007B681B689A68184B1340BA689A420BD1C1
:101730007B680022DA627B689B6A23F0030343F034
:1017400001027B689A6218E07B689B6A23F01203AF
:1017500043F010027B689A627B68DB6A43F0010207
:101760007B68DA620123FB7507E07B689B6A43F0C4
:1017700010027B689A620123FB75FB7D18461837BF
:10178000BD4680BDFDF7E1FFFE0E1FFF80B584B0B2
:1017900000AF78600023FB737B6893F82430012B43
:1017A00001D1022398E07B68012283F82420786825
:1017B00000F0CAF90346FB73FB7B002B40F08780E7
:1017C0007B689B6A23F4407323F0010343F4807227
:1017D0007B689A627B681B68414A934205D1414B02
:1017E0005B6803F47023002B15D17B689B6A23F49C
:1017F00080127B689A627B681B685B6803F4806375
:10180000002B26D07B689B6A23F4405343F480521C
:101810007B689A621DE07B689B6A43F480127B6858
:101820009A627B681B682F4A934204D07B681B68CE
:101830002B4A93420DD12B4B5B6803F48063002B42
:1018400007D07B689B6A23F4405343F480527B6843
:101850009A627B689B6A03F48053002B06D07B68F6
:10186000DB6A23F006027B68DA6202E07B68002212
:10187000DA627B68002283F824207B681B686FF0A3
:1018800002021A607B681B689B6803F46023B3F54F
:10189000602F13D17B681B68114A934205D1114B0D
:1018A0005B6803F47023002B08D17B681B689A687F
:1018B0007B681B6842F4A0029A600CE07B681B689E
:1018C0009A687B681B6842F480129A6003E07B6828
:1018D000002283F82420FB7B18461037BD4680BDCC
:1018E000002801400024014080B584B000AF78603A
:1018F0000023FB737B6893F82430012B01D1022372
:101900001AE07B68012283F82420786800F076F9D9
:101910000346FB73FB7B002B09D17B689B6A23F496
:10192000885323F0010343F001027B689A627B68CD
:10193000002283F82420FB7B18461037BD4680BD6B
:1019400080B483B000AF78607B681B68DB6C18469E
:101950000C37BD4680BC704780B485B000AF78605E
:1019600039600023FB730023BB607B6893F824304D
:10197000012B01D10223DCE07B68012283F82420C3
:101980003B685B68062B1CD87B681B68596B3B68FF
:101990005A6813469B001344053B1F2202FA03F3C7
:1019A000DB4319403B6818683B685A6813469B0044
:1019B0001344053B00FA03F27B681B680A435A6331
:1019C0003CE03B685B680C2B1CD87B681B68196B80
:1019D0003B685A6813469B001344233B1F2202FABC
:1019E00003F3DB4319403B6818683B685A681346A9
:1019F0009B001344233B00FA03F27B681B680A43F5
:101A00001A631BE07B681B68D96A3B685A681346F7
:101A10009B001344413B1F2202FA03F3DB431940AE
:101A20003B6818683B685A6813469B001344413B67
:101A300000FA03F27B681B680A43DA623B681B68A2
:101A4000092B1CD97B681B68D9683B681A68134648
:101A50005B0013441E3B072202FA03F3DB431940E9
:101A60003B6898683B681A6813465B0013441E3B4A
:101A700000FA03F27B681B680A43DA6019E07B68AE
:101A80001B6819693B681A6813465B0013440722F8
:101A900002FA03F3DB4319403B6898683B681A6815
:101AA00013465B00134400FA03F27B681B680A4389
:101AB0001A613B681B68102B03D03B681B68112B15
:101AC00032D17B681B681D4A934225D17B681B6815
:101AD0009B6803F40003002B26D17B681B689A687F
:101AE0007B681B6842F400029A603B681B68102BFD
:101AF0001AD1134B1B68134AA2FB03239A0C1346FB
:101B00009B0013445B00BB6002E0BB68013BBB6011
:101B1000BB68002BF9D107E07B689B6A43F0200289
:101B20007B689A620123FB737B68002283F8242080
:101B3000FB7B18461437BD4680BC7047002401402B
:101B40000C00002083DE1B4380B584B000AF7860BA
:101B50000023FB600023BB607B681B689B6803F06D
:101B60000103012B40D07B681B689A687B681B6867
:101B700042F001029A601F4B1B681F4AA2FB03231D
:101B80009B0CBB6002E0BB68013BBB60BB68002BE9
:101B9000F9D1FFF7F5FCF8601FE0FFF7F1FC024612
:101BA000FB68D31A022B18D97B681B689B6803F06B
:101BB0000103012B11D07B689B6A43F010027B6804
:101BC0009A627B68DB6A43F001027B68DA627B68B9
:101BD000002283F82420012307E07B681B689B68B0
:101BE00003F00103012BD8D1002318461037BD465E
:101BF00080BD00BF0C00002083DE1B4380B584B095
:101C000000AF78600023FB607B681B689B6803F073
:101C10000103012B2ED17B681B689A687B681B68C7
:101C200022F001029A60FFF7ABFCF8601BE0FFF7BF
:101C3000A7FC0246FB68D31A022B14D97B681B68E9
:101C40009B6803F00103012B0DD17B689B6A43F075
:101C500010027B689A627B68DB6A43F001027B6852
:101C6000DA62012307E07B681B689B6803F00103CD
:101C7000012BDCD0002318461037BD4680BD000084
:101C800080B485B000AF78607B6803F00703FB6029
:101C90000C4BDB68BB60BA684FF6FF031340BB60B8
:101CA000FB681A02BB68134343F0BF6343F400337D
:101CB000BB60044ABB68D36000BF1437BD4680BC1C
:101CC000704700BF00ED00E080B400AF044BDB685C
:101CD0001B0A03F007031846BD4680BC704700BFCF
:101CE00000ED00E080B483B000AF03463960FB71C3
:101CF00097F90730002B0ADB3B68DAB20C4997F9F9
:101D000007301201D2B20B4483F800230AE03B688B
:101D1000DAB20849FB7903F00F03043B1201D2B297
:101D20000B441A7600BF0C37BD4680BC704700BF1D
:101D300000E100E000ED00E080B489B000AFF860A1
:101D4000B9607A60FB6803F00703FB61FB69C3F1CC
:101D50000703042B28BF0423BB61FB690433062B54
:101D600002D9FB69033B00E000237B614FF0FF32A7
:101D7000BB6902FA03F3DA43BB681A407B699A40F5
:101D80004FF0FF317B6901FA03F3D9437B680B40C5
:101D9000134318462437BD4680BC704780B582B0D7
:101DA00000AF78607B68013BB3F1807F01D30123F2
:101DB0000FE00A4A7B68013B53600F214FF0FF3070
:101DC000FFF790FF054B00229A60044B07221A6030
:101DD000002318460837BD4680BD00BF10E000E074
:101DE00080B582B000AF78607868FFF749FF00BF28
:101DF0000837BD4680BD80B586B000AF0346B960E8
:101E00007A60FB7300237B61FFF75EFF78617A687D
:101E1000B9687869FFF790FF024697F90F301146CD
:101E20001846FFF75FFF00BF1837BD4680BD80B57D
:101E300082B000AF78607868FFF7B0FF03461846BD
:101E40000837BD4680BD000080B48BB000AF78601D
:101E5000396000237B6200233B6269E101227B6AD7
:101E600002FA03F3FB613B681B68FA691340BB612C
:101E7000BA69FB699A4240F058813B685B689A4AAC
:101E800093425ED0984A934275D8984A934258D06C
:101E9000964A93426FD8964A934252D0944A9342BC
:101EA00069D8944A93424CD0924A934263D8924A5A
:101EB000934246D0904A93425DD8122B2AD8122BD7
:101EC00059D801A252F823F0431F00081D1F000833
:101ED0002F1F0008711F0008771F0008771F0008D8
:101EE000771F0008771F0008771F0008771F00087A
:101EF000771F0008771F0008771F0008771F00086A
:101F0000771F0008771F0008771F0008251F0008AB
:101F1000391F0008794A934213D02CE03B68DB68F4
:101F20003B6229E03B68DB6804333B6224E03B68AA
:101F3000DB6808333B621FE03B68DB680C333B62C5
:101F40001AE03B689B68002B02D104233B6213E03C
:101F50003B689B68012B05D108233B627B68FA69CB
:101F60001A6109E008233B627B68FA695A6103E061
:101F700000233B6200E000BFBB69FF2B01D87B68F8
:101F800001E07B6804337B61BB69FF2B02D87B6A6D
:101F90009B0002E07B6A083B9B003B617B691A68FF
:101FA0000F213B6901FA03F3DB431A40396A3B69AD
:101FB00001FA03F31A437B691A603B685B6803F01C
:101FC0008053002B00F0B1804D4B9B694C4A43F08D
:101FD000010393614A4B9B6903F00103BB60BB683B
:101FE000484A7B6A9B08023352F82330FB607B6AC5
:101FF00003F003039B000F2202FA03F3DB43FA68AA
:102000001340FB607B68404A934213D07B683F4A91
:1020100093420DD07B683E4A934207D07B683D4A8D
:10202000934201D1032306E0042304E0022302E0EB
:10203000012300E000237A6A02F003029200934039
:10204000FA681343FB602F497B6A9B080233FA68E6
:1020500041F823203B685B6803F48013002B06D013
:102060002D4B9A682C49BB6913438B6006E02A4BC1
:102070009A68BB69DB43284913408B603B685B6807
:1020800003F40013002B06D0234BDA682249BB6906
:102090001343CB6006E0204BDA68BB69DB431E4983
:1020A0001340CB603B685B6803F40033002B06D021
:1020B000194B5A681849BB6913434B6006E0164B2D
:1020C0005A68BB69DB43144913404B603B685B684B
:1020D00003F48033002B21D00F4B1A680E49BB69E3
:1020E00013430B6021E000BF0000321000003110EC
:1020F000000022100000211000001210000011103A
:10210000001002400000014000080140000C0140A6
:102110000010014000140140000401400B4B1A68FC
:10212000BB69DB43094913400B607B6A01337B6267
:102130003B681A687B6A22FA03F3002B7FF48EAEA9
:1021400000BF00BF2C37BD4680BC70470004014073
:1021500080B483B000AF78600B467B8013467B7001
:102160007B78002B03D07A887B681A6103E07B8838
:102170001A047B681A6100BF0C37BD4680BC7047EB
:1021800080B586B000AF78607B68002B01D1012359
:1021900072E27B681B6803F00103002B00F087806C
:1021A000924B5B6803F00C03042B0CD08F4B5B68E5
:1021B00003F00C03082B12D18C4B5B6803F48033C3
:1021C000B3F5803F0BD1894B1B6803F40033002B20
:1021D0006CD07B685B68002B68D101234CE27B6884
:1021E0005B68B3F5803F06D1804B1B687F4A43F4A0
:1021F000803313602EE07B685B68002B0CD17B4B37
:102200001B687A4A23F480331360784B1B68774A43
:1022100023F4802313601DE07B685B68B3F5A02F77
:102220000CD1724B1B68714A43F4802313606F4BCF
:102230001B686E4A43F4803313600BE06B4B1B68E2
:102240006A4A23F480331360684B1B68674A23F49F
:10225000802313607B685B68002B13D0FFF790F935
:10226000386108E0FFF78CF902463B69D31A642B0A
:1022700001D9032300E25D4B1B6803F40033002BFC
:10228000F0D014E0FFF77CF9386108E0FFF778F947
:1022900002463B69D31A642B01D90323ECE1534B6B
:1022A0001B6803F40033002BF0D100E000BF7B6813
:1022B0001B6803F00203002B63D04C4B5B6803F0F8
:1022C0000C03002B0BD0494B5B6803F00C03082B6D
:1022D0001CD1464B5B6803F48033002B16D1434B73
:1022E0001B6803F00203002B05D07B681B69012BE0
:1022F00001D00123C0E13D4B1B6823F0F8027B684D
:102300005B69DB00394913430B603AE07B681B696A
:10231000002B20D0364B01221A60FFF731F93861CB
:1023200008E0FFF72DF902463B69D31A022B01D9C9
:102330000323A1E12D4B1B6803F00203002BF0D017
:102340002A4B1B6823F0F8027B685B69DB00274996
:1023500013430B6015E0264B00221A60FFF710F9BB
:10236000386108E0FFF70CF902463B69D31A022BEB
:1023700001D9032380E11D4B1B6803F00203002BEE
:10238000F0D17B681B6803F00803002B3AD07B6810
:102390009B69002B19D0174B01221A60FFF7F0F848
:1023A000386108E0FFF7ECF802463B69D31A022BCC
:1023B00001D9032360E10D4B5B6A03F00203002B9C
:1023C000F0D0012000F09CFA1CE00A4B00221A60B9
:1023D000FFF7D6F838610FE0FFF7D2F802463B6905
:1023E000D31A022B08D9032346E100BF0010024094
:1023F0000000424280044242924B5B6A03F00203B7
:10240000002BE9D17B681B6803F00403002B00F06C
:10241000A6800023FB758B4BDB6903F08053002BF8
:102420000DD1884BDB69874A43F08053D361854BDC
:10243000DB6903F08053BB60BB680123FB75824BF3
:102440001B6803F48073002B18D17F4B1B687E4AF6
:1024500043F480731360FFF793F8386108E0FFF7E7
:102460008FF802463B69D31A642B01D9032303E199
:10247000754B1B6803F48073002BF0D07B68DB681E
:10248000012B06D16F4B1B6A6E4A43F001031362A6
:102490002DE07B68DB68002B0CD16A4B1B6A694A14
:1024A00023F001031362674B1B6A664A23F004039F
:1024B00013621CE07B68DB68052B0CD1614B1B6A47
:1024C000604A43F0040313625E4B1B6A5D4A43F0AB
:1024D000010313620BE05B4B1B6A5A4A23F00103B2
:1024E0001362584B1B6A574A23F0040313627B683C
:1024F000DB68002B15D0FFF743F838610AE0FFF7DF
:102500003FF802463B69D31A41F28832934201D91F
:102510000323B1E04B4B1B6A03F00203002BEED008
:1025200014E0FFF72DF838610AE0FFF729F80246BA
:102530003B69D31A41F28832934201D903239BE0CD
:10254000404B1B6A03F00203002BEED1FB7D012BF5
:1025500005D13C4BDB693B4A23F08053D3617B6858
:10256000DB69002B00F08780364B5B6803F00C03BF
:10257000082B61D07B68DB69022B46D1334B0022EC
:102580001A60FEF7FDFF386108E0FEF7F9FF02462A
:102590003B69D31A022B01D903236DE0294B1B6839
:1025A00003F00073002BF0D17B681B6AB3F5803F0A
:1025B00008D1244B5B6823F400327B689B68214977
:1025C00013434B601F4B5B6823F474127B68196ADA
:1025D0007B685B6A0B431B4913434B601B4B012217
:1025E0001A60FEF7CDFF386108E0FEF7C9FF02462A
:1025F0003B69D31A022B01D903233DE0114B1B6821
:1026000003F00073002BF0D035E0104B00221A606D
:10261000FEF7B6FF386108E0FEF7B2FF02463B69FD
:10262000D31A022B01D9032326E0064B1B6803F0C3
:102630000073002BF0D11EE07B68DB69012B07D112
:10264000012319E000100240007000406000424287
:102650000B4B5B68FB60FB6803F480327B681B6A92
:102660009A4206D1FB6803F470127B685B6A9A4257
:1026700001D0012300E0002318461837BD4680BD75
:102680000010024080B584B000AF786039607B688C
:10269000002B01D10123D0E06A4B1B6803F0070334
:1026A0003A689A4210D9674B1B6823F007026549C4
:1026B0003B6813430B60634B1B6803F007033A68E6
:1026C0009A4201D00123B8E07B681B6803F0020343
:1026D000002B20D07B681B6803F00403002B05D07F
:1026E000594B5B68584A43F4E06353607B681B684E
:1026F00003F00803002B05D0534B5B68524A43F4A8
:1027000060535360504B5B6823F0F0027B689B681A
:102710004D4913434B607B681B6803F00103002B9A
:1027200040D07B685B68012B07D1474B1B6803F4E3
:102730000033002B15D101237FE07B685B68022BFF
:1027400007D1414B1B6803F00073002B09D1012313
:1027500073E03D4B1B6803F00203002B01D1012302
:102760006BE0394B5B6823F003027B685B6836499A
:1027700013434B60FEF704FFF8600AE0FEF700FF2A
:102780000246FB68D31A41F28832934201D90323EF
:1027900053E02D4B5B6803F00C027B685B689B0089
:1027A0009A42EBD1274B1B6803F007033A689A4221
:1027B00010D2244B1B6823F0070222493B681343C5
:1027C0000B60204B1B6803F007033A689A4201D064
:1027D000012332E07B681B6803F00403002B08D060
:1027E000194B5B6823F4E0627B68DB68164913438E
:1027F0004B607B681B6803F00803002B09D0124B69
:102800005B6823F460527B681B69DB000E4913434D
:102810004B6000F021F802460B4B5B681B0903F08C
:102820000F030A49CB5C22FA03F3094A1360094BF0
:102830001B681846FEF762FE002318461037BD4697
:1028400080BD00BF0020024000100240F82E0008AA
:102850000C0000201000002080B487B000AF0023DF
:10286000FB600023BB6000237B6100237B600023AF
:102870003B611E4B5B68FB60FB6803F00C03042BA1
:1028800002D0082B03D027E0194B3B6127E0FB68FF
:102890009B0C03F00F03174AD35C7B60FB6803F4C7
:1028A0008033002B10D0114B5B685B0C03F00103ED
:1028B000114AD35CBB607B680D4A03FB02F2BB6824
:1028C000B2FBF3F37B6104E07B680C4A02FB03F389
:1028D0007B617B693B6102E0054B3B6100BF3B696B
:1028E00018461C37BD4680BC704700BF0010024030
:1028F00000127A00082F0008182F000800093D0078
:1029000080B485B000AF78600A4B1B680A4AA2FB0E
:1029100003235B0A7A6802FB03F3FB6000BFFB68DA
:102920005A1EFA60002BF9D100BF00BF1437BD4614
:1029300080BC70470C000020D34D621080B586B07B
:1029400000AF786000233B610023FB607B681B685D
:1029500003F00103002B7DD00023FB754F4BDB6997
:1029600003F08053002B0DD14C4BDB694B4A43F0F5
:102970008053D361494BDB6903F08053BB60BB6874
:102980000123FB75464B1B6803F48073002B18D1A1
:10299000434B1B68424A43F480731360FEF7F0FD1B
:1029A000386108E0FEF7ECFD02463B69D31A642B60
:1029B00001D903236DE03A4B1B6803F48073002BAD
:1029C000F0D0364B1B6A03F44073FB60FB68002BAE
:1029D0002ED07B685B6803F44073FA689A4227D074
:1029E0002E4B1B6A23F44073FB602E4B01221A60AE
:1029F0002C4B00221A60294AFB681362FB6803F023
:102A00000103002B14D0FEF7BBFD38610AE0FEF78E
:102A1000B7FD02463B69D31A41F28832934201D98D
:102A2000032336E01D4B1B6A03F00203002BEED09C
:102A30001A4B1B6A23F440727B685B681749134387
:102A40000B62FB7D012B05D1144BDB69134A23F08C
:102A50008053D3617B681B6803F00203002B08D00E
:102A60000E4B5B6823F440427B689B680B49134321
:102A70004B607B681B6803F01003002B08D0074BEA
:102A80005B6823F480027B68DB68044913434B6076
:102A9000002318461837BD4680BD00BF0010024015
:102AA0000070004040044242014B1868704700BF6C
:102AB0001800002070B500260C4D0D4C641BA410AE
:102AC000A64209D100F00CFA00260A4D0A4C641BFC
:102AD000A410A64205D170BD55F8043B98470136B5
:102AE000EEE755F8043B98470136F2E71C2F000843
:102AF0001C2F00081C2F0008202F0008034602444A
:102B0000934200D1704703F8011BF9E7F8B504467A
:102B10000D4600F02DF8224606460F462B4620466D
:102B20002946FDF76BFF98B900220023204629466D
:102B3000FDF75AFF60B90022002320462946FDF721
:102B40002BFF40B1FFF7B0FF22230026064F0360A2
:102B500030463946F8BDFFF7A7FF2123036003483D
:102B6000BDE8F84000F0B6B90000F0FF1A2F0008E9
:102B70002DE9F04FB1F5801F02460B460D4687B098
:102B800024DA21F00044044308D10022002300206D
:102B9000CB49FDF7C3FD07B0BDE8F08F002904DA8B
:102BA000FDF7DAFA00220023F3E70022C54BFDF718
:102BB0008BFC6FF0350602460B460D46C2498D422E
:102BC00006DD10461946FDF7C9FAE4E70026F5E7E9
:102BD0002C15C5F3130505F51521A4F2FF3401F6F4
:102BE0006471264401F4801484F07F5181F4401113
:102BF00041EA0503104619460022B44BFDF7ACFA32
:102C0000AB1CC3F31303022B82468B464FF000022A
:102C100006EB145453DC0023FDF7BEFED0B1002CAC
:102C200000F022812046FDF7E5FB91A3D3E90023C4
:102C300006460F46FDF748FC8FA3D3E90023044660
:102C40000D4630463946FDF73FFC02460B4620460E
:102C50002946B8E78AA3D3E9002350465946FDF731
:102C600033FC02460B4600209949FDF775FA52469F
:102C700006460F465B4650465946FDF725FC024680
:102C80000B4630463946FDF71FFC06460F4614B981
:102C900032463B46A2E02046FDF7ACFB74A3D3E9E5
:102CA000002380468946FDF70FFC73A3D3E9002378
:102CB00004460D4640464946FDF706FCA7E04FF0A6
:102CC0008043FDF74BFA02460B4650465946FDF746
:102CD00025FDCDE900012046FDF78CFBDDE9002351
:102CE000CDE9020110461946FDF7EEFBA5F5C2231A
:102CF000A3F27A43024605930B4606460F46FDF7BC
:102D0000E3FB61A3D3E9002380468946FDF7DCFBA2
:102D10005FA3D3E90023FDF721FA42464B46FDF7B6
:102D2000D3FB5DA3D3E90023FDF718FA42464B46D7
:102D3000FDF7CAFB5AA3D3E90023FDF70FFA324689
:102D40003B46FDF7C1FB58A3D3E9002306460F46D7
:102D500040464946FDF7B8FB55A3D3E90023FDF7EC
:102D6000FDF942464B46FDF7AFFB53A3D3E90023E1
:102D7000FDF7F4F942464B46FDF7A6FB0B4602462B
:102D800039463046FDF7EAF9C5F5D725059B51359B
:102D90001D43002D8046894648DD00224C4B50469D
:102DA0005946FDF791FB52465B46FDF78DFB024607
:102DB0000B4606460F4640464946FDF7CFF9DDE98A
:102DC0000023FDF781FB8046894664B902460B4625
:102DD00030463946FDF7C0F902460B465046594683
:102DE000FDF7BAF9D7E622A3D3E90023DDE9020112
:102DF000FDF76AFB20A3D3E9002304460D46DDE975
:102E00000201FDF761FB42464B46FDF7A7F902467A
:102E10000B4630463946FDF79FF952465B46FDF7B3
:102E20009BF902460B4620462946D9E702460B4647
:102E300050465946FDF790F9DDE90023FDF744FBC4
:102E400006460F46002C3FF423AF09A3D3E9002325
:102E5000DDE90201FDF738FB07A3D3E900230446AF
:102E60000D46DDE9020127E70020002193E600BFBF
:102E70000000E0FE422EE63F763C7935EF39EA3D30
:102E8000555555555555D53F44523EDF12F1C23F79
:102E9000DE03CB966446C73F599322942449D23F20
:102EA000935555555555E53F9FC678D0099AC33F70
:102EB000AF788E1DC571CC3F04FA97999999D93F87
:102EC000000050C300005043FFFFEF7F0000F03FC1
:102ED0000000E03F00200149704700BF0000F87F7C
:102EE000F8B500BFF8BC08BC9E467047F8B500BFF7
:082EF000F8BC08BC9E467047C7
:102EF80000000000000000000102030406070809A2
:102F080002030405060708090A0B0C0D0E0F101022
:042F180001020000B2
:042F1C003501000873
:042F20001101000893
:102F2400C0F9A4B0999282F8809000000024F400C3
:102F340010000000010000001C0000200000000040
:102F4400000000000000000000000000000000007D
:102F5400000000000000000000000000000000006D
:102F6400000000000000000000000000000000005D
:102F7400000000000000000000000000000000004D
:102F8400000000000000000000000000000000003D
:0C2F940000000000000000000000000031
:040000050800148556
:00000001FF
